S00F000048432D535230342E7372656354
S113000033C0000079C000004BC0000049C00000AC
S113001047C0000045C00000A2C0000041C000006D
S11300203FC000003DC000003BC0000039C00000DC
S113003037C0000035C0000033C0000031C00000EC
S11300402FC000002DC000002BC0000029C00000FC
S113005027C0000025C0000023C0000021C000000C
S11300601FC000001DC0000011241FBECFEFD8E048
S1130070DEBFCDBF11E0A0E0B1E0EEEDF0E102C0E3
S113008005900D92A434B107D9F721E0A4E4B1E0BE
S113009001C01D92A734B207E1F703D00C946D0898
S11300A0AFCFCF93DF931F92CDB7DEB7809100011E
S11300B0909101010197D1F41982A4D0CE01019647
S11300C0BAD022E031E0482F66E071E081E02ED31F
S11300D022E131E0498167E171E082E027D380D0F9
S11300E08091000190910101019731F380E090E04B
S11300F00F90DF91CF9108951F920F920FB60F9238
S113010011248F939F93EF93FF938091440188234D
S113011019F0813051F01AC081E080934401E1E884
S1130120F0E080818260808311C010924401E1E894
S1130130F0E080818D7F8083E4E8F0E0808191812C
S1130140909346018093450111821082FF91EF91B3
S11301509F918F910F900FBE0F901F9018951F9233
S11301600F920FB60F9211248F939F9380910001E9
S113017090910101892B31F481E090E09093010189
S1130180809300019F918F910F900FBE0F901F904D
S11301901895F89484B7877F84BFE0E6F0E0808107
S11301A08861808381E28083789480818064808305
S11301B0089583B7817F846083BF83B7816083BFE1
S11301C083B7816083BF889583B78E7F83BF83B7EE
S11301D08E7F83BFE4E6F0E08081807180830895A0
S11301E0D8DFE7CF089552985A988AB18A608AB9BD
S11301F059985B980895E89AE9E6F0E08081816077
S113020080830895F0DFF7DF789408955B9A2FEFE9
S113021089EF90E0215080409040E1F700C0000059
S11302205B982FEF89EF90E0215080409040E1F7F8
S113023000C0000008952F923F924F925F926F92F8
S11302407F928F929F92AF92BF92CF92DF92EF9262
S1130250FF920F931F93CF93DF938C01599A2FEF43
S113026083EC99E0215080409040E1F700C0000009
S1130270C4E00F2EFCE02F2EF02DDFE00F2EFDE06A
S11302803F2EF02DF8011082C1DF6091450170917D
S1130290460180E090E0E6D228E23EE74CE05CE3F1
S11302A097D34B015C0120E030E0A90142D26B01FD
S11302B07C01FFEF23EC89E0F15020408040E1F71E
S11302C000C00000A3DF609145017091460180E009
S11302D090E0C8D228E23EE74CE05CE379D32B01FE
S11302E03C019FEFE3ECF9E09150E040F040E1F78E
S11302F000C00000A7019601C301B2011AD220E098
S113030030E040E05FE364D36B017C0120E030E047
S1130310A90173D218161CF0F80130822BC020E01A
S113032030E040EA51E4C701B60167D218161CF068
S1130330F801D0831FC0A3019201C501B401F8D113
S113034060D29B01772324F422273327261B370B03
S1130350263031051CF0F80120820CC020E030E08A
S11303604AE753E4C701B6012FD3882334F02EE0C3
S1130370F8012083C15009F085CF5998C701B6010F
S113038045D2862FDF91CF911F910F91FF90EF906F
S1130390DF90CF90BF90AF909F908F907F906F90A1
S11303A05F904F903F902F900895CF93DF9300D0AC
S11303B000D0CDB7DEB719821A821B821C82FE01DF
S11303C0319627E030E090E061E0AC01022E02C0FB
S11303D0559547950A94E2F740FD60832150310911
S11303E031962330310589F78BB18F708BB92BB1DE
S11303F0498130E8439FC00111249A8130E4939FDE
S1130400A0011124482B422B9B8180E2989F9001EC
S11304101124242B9C8130E1939FC0011124822B51
S11304208BB95B9A85E08A95F1F700005B9835E01B
S11304303A95F1F700000F900F900F900F90DF9115
S1130440CF910895CF93C82F5898599A5B98ADDFF0
S11304508C2F8295807FA9DFCF910895CF93C82FE9
S1130460589859985B98A1DF8C2F8295807F9DDFE7
S1130470CF91089557985998589A5B9A85E08A9530
S1130480F1F7000089B15B9895E09A95F1F70000C7
S11304905B9A95E09A95F1F700005B9895E09A9540
S11304A0F1F7000088234CF35898579A08950F9356
S11304B01F93CF93DF9300D0CDB7DEB78C011A82A0
S11304C01982E981FA81E80FF91F8081882399F064
S11304D0D1DFE981FA81E00FF11F8081B3DF8981E7
S11304E09A8101969A838983E981FA81E00FF11F49
S11304F080818111EDCF0F900F90DF91CF911F91EB
S11305000F910895DF92EF92FF920F931F93CF9371
S1130510DF93CDB7DEB7AF970FB6F894DEBF0FBE4B
S1130520CDBF182FD62E072F842F790120E230E279
S11305303A83298320E230E03C832B8396E1EDE289
S1130540F1E0DE015A9601900D929A95E1F74F3F42
S113055031F04AE0BE016F5F7F4F90E0A5D262E1C7
S113056071E08D2D902F97D2892B09F4ACC062E1F4
S113057071E0C70190D2892B31F40F2EF2E4EF2EF3
S1130580F1E0FF2EF02DCE014A969F938F93FF92B8
S1130590EF9249979F938F930F93DF928EE191E0AF
S11305A09F938F931F9285E18F93CE0105969F931E
S11305B08F939DD267E271E08D2D902F6CD20FB690
S11305C0F894DEBF0FBECDBF892BA9F4CE014A96A5
S11305D09F938F9384E291E09F938F931F9285E181
S11305E08F93CE0105969F938F9381D20FB6F89483
S11305F0DEBF0FBECDBF1230A9F018F4113031F0B8
S113060034C01330D9F0143029F12FC080E826DF2C
S11306109FEF20E732E0915020403040E1F700C0E6
S1130620000023C080EC1ADF8FEF90E722E08150B6
S113063090402040E1F700C0000017C084E90EDFBD
S11306403FEF80E792E0315080409040E1F700C0F6
S113065000000BC084ED02DF2FEF30E782E0215071
S113066030408040E1F700C00000CE0105961FDF56
S11306709FEF20E732E0915020403040E1F700C086
S1130680000046C0CE014A969F938F9382E491E086
S11306909F938F939E012F5F3F4F3F932F939F9381
S11306A08F938EE191E09F938F931F9285E18F93B7
S11306B0CE0105969F938F931AD20FB6F894DEBF9E
S11306C00FBECDBF98CF62E171E0C701E4D1892BA1
S11306D0C9F2CE014A969F938F93FF92EF92499766
S11306E09F938F9382E491E09F938F938EE191E0A7
S11306F09F938F931F9285E18F93CE0105969F93CD
S11307008F93F5D10FB6F894DEBF0FBECDBF73CF74
S1130710AF960FB6F894DEBF0FBECDBFDF91CF9179
S11307201F910F91FF90EF90DF900895EBCE089505
S11307305058BB27AA270ED00DC1FED030F003D1EC
S113074020F031F49F3F11F41EF4F3C00EF4E09551
S1130750E7FBE9C0E92F0FD180F3BA1762077307EB
S11307608407950718F071F49EF527C10EF4E095FF
S11307700B2EBA2FA02D0B01B90190010C01CA0157
S1130780A0011124FF27591B99F0593F50F4503E02
S113079068F11A16F040A22F232F342F4427585FF4
S11307A0F3CF469537952795A795F0405395C9F70C
S11307B07EF41F16BA0B620B730B840BBAF09150C4
S11307C0A1F0FF0FBB1F661F771F881FC2F70EC063
S11307D0BA0F621F731F841F48F487957795679536
S11307E0B795F7959E3F08F0B3CF9395880F08F01F
S11307F09927EE0F97958795089571D008F481E0B5
S1130800089504D06894B111D9C00895BCD088F07B
S11308109F5790F0B92F9927B751A0F0D1F0660FE8
S1130820771F881F991F1AF0BA95C9F712C0B13003
S113083081F0C3D0B1E00895C0C0672F782F882716
S1130840B85F39F0B93FCCF3869577956795B39542
S1130850D9F73EF490958095709561957F4F8F4FB1
S11308609F4F0895E89409C097FB3EF490958095B6
S1130870709561957F4F8F4F9F4F9923A9F0F92F62
S113088096E9BB279395F695879577956795B795E0
S1130890F111F8CFFAF4BB0F11F460FF1BC06F5FC6
S11308A07F4F8F4F9F4F16C0882311F096E911C0D8
S11308B0772321F09EE8872F762F05C0662371F0F9
S11308C096E8862F70E060E02AF09A95660F771F0D
S11308D0881FDAF7880F9695879597F90895990FE9
S11308E00008550FAA0BE0E8FEEF16161706E807F6
S11308F0F907C0F012161306E407F50798F0621B17
S1130900730B840B950B39F40A2661F0232B242BEB
S1130910252B21F408950A2609F4A140A6958FEF0A
S1130920811D811D089597F99F6780E870E060E05C
S113093008959FEF80EC089500240A941616170674
S113094018060906089500240A94121613061406BC
S113095005060895092E0394000C11F4882352F01F
S1130960BB0F40F4BF2B11F460FF04C06F5F7F4FD7
S11309708F4F9F4F089557FD9058440F551F59F0BE
S11309805F3F71F04795880F97FB991F61F09F3F78
S113099079F087950895121613061406551FF2CFA1
S11309A04695F1DF08C0161617061806991FF1CFF1
S11309B086957105610508940895E894BB27662718
S11309C07727CB0197F908958ADF08F48FEF08950C
S11309D00BD0C0CFB1DF28F0B6DF18F0952309F0B3
S11309E0A2CFA7CF1124EACFC6DFA0F3959FD1F3FE
S11309F0950F50E0551F629FF001729FBB27F00DC9
S1130A00B11D639FAA27F00DB11DAA1F649F66271D
S1130A10B00DA11D661F829F2227B00DA11D621F6C
S1130A20739FB00DA11D621F839FA00D611D221F26
S1130A30749F3327A00D611D231F849F600D211D0A
S1130A40822F762F6A2F11249F5750408AF0E1F0AD
S1130A5088234AF0EE0FFF1FBB1F661F771F881FF6
S1130A6091505040A9F79E3F510570F05CCFA6CF3E
S1130A705F3FECF3983EDCF3869577956795B795E1
S1130A80F795E7959F5FC1F7FE2B880F911D96950B
S1130A90879597F90895FB01DC018D9101908019E8
S1130AA00110D9F3990B0895BB274A3031F49923E7
S1130AB022F4BDE2909581959F4F01C0BB27FB01B5
S1130AC05527AA27880F991FAA1FA41710F0A41B43
S1130AD083955051B9F7A05DAA3308F0A95DA1939D
S1130AE0009779F7B111B1931192CB0115C2AEE021
S1130AF0B0E0ECE7F5E0C8C20D891E898F89988DB6
S1130B0026E02C831A83098397FF02C080E090E8D3
S1130B1001979E838D83AE01455E5F4F698D7A8D0B
S1130B20CE01019611D04D815E8157FD0AC02F81FF
S1130B303885421753070CF49A01F801E20FF31FAA
S1130B4010822E96E4E0BCC2ABE0B0E0E9EAF5E046
S1130B508DC26C017B018A01FC011782168283819C
S1130B6081FFBFC1CE0101963C01F6019381F701DB
S1130B7093FD859193FF81917F01882309F4ADC191
S1130B80853239F493FD859193FF81917F018532FC
S1130B9021F4B60190E0D0D1E8CF912C212C312C56
S1130BA0FFE1F315D8F08B3279F038F4803279F024
S1130BB08332A1F4232D20611DC08D3261F0803376
S1130BC069F4232D216016C0832D8260382EE32D15
S1130BD0E4603E2E2AC0F32DF8601DC037FC2DC002
S1130BE020ED280F2A3040F08E32B9F436FC75C15E
S1130BF0232D2064322E19C036FE06C08AE0989E4A
S1130C00200D1124922E11C0EAE02E9E200D1124F5
S1130C10222EF32DF0623F2E08C08C3621F4832D52
S1130C208068382E02C0883641F4F70193FD85911F
S1130C3093FF81917F018111B3CF982F9F7D9554AC
S1130C40933028F40C5F1F4F9FE399830DC08336C4
S1130C5031F0833771F0833509F055C020C0F801B5
S1130C60808189830E5F1F4F88248394912C5301C4
S1130C7012C02801F2E04F0E511CF801A080B1808F
S1130C8036FE03C0692D70E002C06FEF7FEFC5012F
S1130C9038D14C018201F32DFF773F2E15C0280176
S1130CA022E0420E511CF801A080B18036FE03C040
S1130CB0692D70E002C06FEF7FEFC50117D14C01C1
S1130CC0F32DF0683F2E820133FC19C0822D90E091
S1130CD088169906A0F4B60180E290E02DD12A94FA
S1130CE0F5CFF50137FC859137FE81915F01B6019F
S1130CF090E022D121102A9421E0821A91088114D3
S1130D00910479F7E1C0843611F0893639F5F80198
S1130D1037FE07C060817181828193810C5F1F4F10
S1130D2008C060817181072E000C880B990B0E5F3F
S1130D301F4FF32DFF763F2E97FF09C090958095A6
S1130D40709561957F4F8F4F9F4FF0683F2E2AE03B
S1130D5030E0A3012DD1882E861844C0853731F4A4
S1130D60232D2F7EB22E2AE030E025C0932D997FCB
S1130D70B92E8F36C1F018F4883579F0AEC08037BB
S1130D8019F0883721F0A9C0E92FE061BE2EB4FE26
S1130D900DC0FB2DF460BF2E09C034FE0AC0292FFC
S1130DA02660B22E06C028E030E005C020E130E025
S1130DB002C020E132E0F801B7FE07C06081718112
S1130DC0828193810C5F1F4F06C06081718180E036
S1130DD090E00E5F1F4FA301EBD0882E8618FB2DE9
S1130DE0FF773F2E36FE0DC0232D2E7FA22E8914B1
S1130DF058F434FE0BC032FC09C0832D8E7EA82E1D
S1130E0005C0B82CA32C03C0B82C01C0B92CA4FE77
S1130E100FC0FE01E80DF11D8081803321F49A2D6D
S1130E20997EA92E09C0A2FE06C0B394B39404C04F
S1130E308A2D867809F0B394A3FC10C0A0FE06C0E6
S1130E40B21480F4280C922C9B180DC0B21458F4E0
S1130E50B60180E290E070D0B394F8CFB21418F4E5
S1130E602B1802C0982C212CA4FE0FC0B60180E3DD
S1130E7090E062D0A2FE16C0A1FC03C088E790E017
S1130E8002C088E590E0B6010CC08A2D867851F046
S1130E90A1FE02C08BE201C080E2A7FC8DE2B60194
S1130EA090E04AD0891430F4B60180E390E044D055
S1130EB09A94F8CF8A94F301E80DF11D8081B6016C
S1130EC090E03AD08110F6CF222009F44ECEB6013C
S1130ED080E290E031D02A94F7CFF60186819781A1
S1130EE002C08FEF9FEF2B96E2E1DCC0FC0105907E
S1130EF0615070400110D8F7809590958E0F9F1F18
S1130F000895FC016150704001900110D8F780955C
S1130F1090958E0F9F1F0895DC01FC01672F71913E
S1130F207723E1F7329704C07C916D9370836291CB
S1130F30AE17BF07C8F308950F931F93CF93DF93A2
S1130F40FB01238121FD03C08FEF9FEF2CC022FF03
S1130F5016C046815781248135814217530744F4D2
S1130F60A081B1819D012F5F3F4F318320838C93FA
S1130F70268137812F5F3F4F3783268314C08B012F
S1130F80EC01FB010084F185E02D0995892BE1F644
S1130F90D80116968D919C911797019617969C935C
S1130FA08E931697CE01DF91CF911F910F910895E3
S1130FB0FA01AA27283051F1203181F1E8946F9386
S1130FC06E7F6E5F7F4F8F4F9F4FAF4FB1E03ED02C
S1130FD0B4E03CD0670F781F891F9A1FA11D680FCA
S1130FE0791F8A1F911DA11D6A0F711D811D911DFD
S1130FF0A11D20D009F468943F912AE0269F112472
S11310003019305D3193DEF6CF010895462F4770D5
S1131010405D4193B3E00FD0C9F7F6CF462F4F7030
S1131020405D4A3318F0495D31FD4052419302D08E
S1131030A9F7EACFB4E0A695979587957795679534
S1131040BA95C9F700976105710508959B01AC0134
S11310500A2E06945795479537952795BA95C9F75B
S1131060620F731F841F951FA01D08952F923F9236
S11310704F925F926F927F928F929F92AF92BF92A4
S1131080CF92DF92EF92FF920F931F93CF93DF9350
S1131090CDB7DEB7CA1BDB0B0FB6F894DEBF0FBEAD
S11310A0CDBF09942A88398848885F846E847D84FA
S11310B08C849B84AA84B984C884DF80EE80FD80FC
S11310C00C811B81AA81B981CE0FD11D0FB6F89472
S11110D0DEBF0FBECDBFED010895F894FFCF33
S11310DE010020636D0044697374616E6365203D85
S11310EE20004E4F4E4500445443203D20002573AE
S11310FE25732573257300434C454152002020204F
S113110E20202020202020202020202020202020CD
S107111E2020000089
S9030000FC
